:100FC20012105B7D0BE4FF120FF11210D5120FDA33
:080FD2001210CE120DBD80EBE0
:03000B00020DFDE6
:100DFD00C0E0C0F0C083C082C0D075D000C000C0BC
:100E0D0001C002C003C004C005C006C0071210A770
:100E1D00120E6FD007D006D005D004D003D002D06B
:0E0E2D0001D000D0D0D082D083D0F0D0E032FF
:03006300020D7C0F
:100D7C00C0E0C0F0C083C082C0D075D000C000C03D
:100D8C0001C002C003C004C005C006C00712104752
:100D9C00120FA1120E3BD007D006D005D004D00301
:100DAC00D002D001D000D0D0D082D083D0F0D0E00F
:010DBC003204
:03103300012DFF8D
:10105B00C2AF1210081210991210B41210C1D2AFF5
:01106B002262
:100FDA00E52B14600B24FE600A24037009020D3904
:070FEA00020EF0120EC622F8
:0710CE00908000E52DF022E7
:100DBD00E528D3952A5004E4FF8031C3E528952A10
:100DCD00FFE49400FE7C007DFF120A65AC06AD07C2
:100DDD00E41209ABE4FBFA79A078401209097B0A09
:100DED007AD779A3783C1208001209E412101E225A
:100E6F00E52B14601324FE601D2403701EAF277E34
:100E7F0000AD287C00020ADA74232529F8E6FD7CF0
:0C0E8F0000AF29020C18AF2A120C9A22A6
:0D10A700AF29120F3B74232529F8A607225C
:0710D5007D0BE4FF020FF1A7
:1010080090800074FFF090A000E4F090C00074FF9E
:06101800F090E000F02260
:100D3900120E9B8F38E53864047023120CF2742369
:100D49002529F8A607752C0385282774232529F852
:100D5900E6F5280529E529C3940440168008E538F5
:100D6900B40307752B01E4F52922E538B4020375AC
:020D79002B034A
:010D7B002255
:100EF000532D7F120E9BBF0305E4F52B8006BF0226
:100F000007752B03432D8022BF010C0529E529C35A
:070F100094044003E4F529FD
:010F170022B7
:100EC600532DBF120E9BBF0305752B018006BF0273
:100ED60007E4F52B432D4022BF010EE52A240AF52F
:090EE6002AD3941E4003E4F52A0E
:010EEF0022E0
:100E3B00E52C602C0522E522AE217002052114D38E
:100E4B0094A8EE94614008E4F521F522152C22D3E9
:100E5B00E52294D4E521943040028004532DFE22E8
:030E6B00432D0113
:010E6E002261
:101036000E0BC0F9A4B0999282F88090FFBFC68EBD
:080ADA008E2E8F2FAB05AA043C
:100AE2008517308515317C007D64120A77740B2FCF
:100AF200F8E6F532AE2EAF2F7C007D0A120A777C23
:100B0200007D0A120A77740B2DF8E6F533AE2EAF8C
:100B12002F7C007D0A120A77740B2DF8E6F5347CDF
:100B2200007D64AF03AE02120A77740B2FF8E6F56C
:100B3200357C007D0AAF03AE02120A777C007D0A83
:100B4200120A77740B2DF8E6F536AE02AF037C007D
:100B52007D0A120A77740B2DF8E6F53790E00074DF
:100B6200FFF0AF087401A807088002C333D8FC90D5
:100B7200C000F074302508F8E690E000F00508E5C2
:090B820008C394084003E4F508DF
:010B8B002247
:040C1800AB05AA047A
:100C1C00740B2FF8E6F52E85152F851530851531BB
:100C2C008515327C007D64AF03AE02120A77740B1B
:100C3C002FF8E6F5337C007D0AAF03AE02120A777B
:100C4C007C007D0A120A77740B2DF8E6F534AE029F
:100C5C00AF037C007D0A120A77740B2DF8E6F5358C
:100C6C0090E00074FFF0AF097401A807088002C37C
:100C7C0033D8FC90C000F0742E2509F8E690E00003
:0D0C8C00F00509E509C394084003E4F509EB
:010C99002238
:100C9A0085182E85152F85153085153185153285D0
:100CAA001533EF75F00A84240BF8E6F534EF75F086
:100CBA000A84740B25F0F8E6F53590E00074FFF02D
:100CCA00AF0A7401A807088002C333D8FC90C00099
:100CDA00F0742E250AF8E690E000F0050AE50AC34A
:070CEA0094084003E4F50A41
:010CF10022E0
:0610DC0000007F0CDFFEA6
:0110E20022EB
:0F106C00D2A11210DCD2A01210DCC2A10210DC43
:0F107B00C2A11210DCD2A01210DCD2A10210DC34
:0B0F8000120F18120F8BAF04120F1895
:100F8B007EC8D2A01210DC30A106AF061EEF70F7A0
:050F9B001210DCC2A0F1
:010FA000222E
:0F108A00D2A01210DCD2A11210DCC2A00210DC26
:020F1800AE0722
:100F1A00E4FDC2A01210DCEE30E704D2A18002C2C6
:100F2A00A11210DCD2A0EE25E0FE0DBD08E4C2A09D
:010F3A002294
:100F5E00D2A1E4FDEE25E0FED2A01210DC30A103FA
:100F6E004306011210DCC2A01210DC0DBD08E5AF65
:010F7E00066C
:010F7F00224F
:100FF100AC05AB0712106C7FA0120F18120F8BAF4C
:0710010003120F8002107BB7
:020F3B00AC0701
:100F3D0012106C7FA0120F8012106C7FA1120F186F
:100F4D00120F8B120F5EAE0712108A12107BAF06B6
:010F5D002271
:10101E00AC0712106C7F90120F18120F8B7F4012BC
:05102E000F8002107BA1
:100FA10075B00FE5B0540F640F6010E51CC3941EBB
:100FB1004006751C1ED20022051C22E4F51CC2004D
:010FC100220D
:100E9B00E4FF30002520B0060F30001E80FB20B190
:100EAB00077F0230001480FB20B2077F0330000A5B
:0A0EBB0080FB20B3057F042000FD3A
:010EC500220A
:10104700300110B2900519E519C394084005E4F57D
:0310570019C201BA
:01105A002273
:100CF200E4FFFE20013EF58DF58BD201D28E3091BC
:100D020003308FFAC28E308F0AC28F751A00751B9C
:100D1200FF8021AF8DEFFEAD8BEDFFE4AC06120933
:100D2200AB7B967A43798B783C1208001209E47502
:060D32001A008F1BAF1B2D
:010D38002298
:0E109900758CF8758A305389F0D2A9D28C225A
:0D10B400E4F58DF58B53890FC2ABC28E227F
:0D10C10075D7F675D6FF438E1043AF04229D
:10080000EC4D6011E8497017ED33EC3304600DE4F2
:10081000FCFFFEFD22E933E8330470F8020A5012AF
:100820000A1B58046009E4CC2481500628500902B0
:100830000A5A284003020A57C0E0EB4A7044B980C4
:1008400006D0E0FB020A46EF4E701CBD8008EBFFAD
:10085000EAFEE9FD80EBE98DF0A4FEE5F00208E98F
:10086000E9CDF9EAFEEBFFEF89F0A4FCE5F0CE89D3
:10087000F0A42EFFE435F0CD89F0A42DFEE435F090
:100880008067EF4E7005BD80D780C3EF8BF0A4ACBE
:10089000F0EE8BF0A42CFCE435F0F8EF8AF0A42CF9
:1008A000E5F038FCE433CB8DF0A42CFCE5F03BF80C
:1008B000EE8AF0A42CFCE5F038F8E433CF89F0A4FC
:1008C0002CFCE5F038CF3400CE89F0A42FFFE5F002
:1008D0003EFEE433C98DF0A42EFEE5F039CD8AF05A
:1008E000A42FFFE5F03EFEE43DFD33D0E0FB5007D2
:1008F0000BBB000F020A5AEC2CFCEF33FFEE33FE69
:06090000ED33FD020A3296
:10090600020A5AEC5D046005E859047003020A50B5
:10091600120A1B580460F6EC4860F2EC7004FDFE07
:10092600FF22C860DB2481C85009C39860025006C4
:10093600020A579850CAF582E9294B4A7005AB82DC
:10094600020A4675F0007C1A7880C3EF9BEE9AED9A
:1009560099400DC3EF9BFFEE9AFEED99FDE842F03C
:10096600DC23ACF0D0E0FFD0E0FED0E0FDAB82208F
:10097600E7101BEB60BAEC2CFCEF33FFEE33FEED19
:1009860033FD020A32E803F830E705C0F075F000DF
:10099600EF2FFFEE33FEED33FD40B830E7C280AAFD
:1009A60075F020800E75F010800575F0087D007ECC
:1009B600007F003392D530D503120ACCEC334010B9
:1009C600EF33FFEE33FEED33FDEC33FCD5F0ED22D5
:0E09D600E5F0247EA2D513CC92E7CDCEFF2211
:1009E400EDD2E7CD33EC3392D524814006E4FFFE0B
:1009F400FDFC22FCE4CFCECDCC24E0501174FF806A
:100A0400EDC3CC13CCCD13CDCE13CECF13CF047006
:070A1400F030D5DE020ACC30
:100A1B00E9D2E7C933E833F892D5EDD2E7CD33EC21
:070A2B0033FC5002B2D5229A
:100A3200EC30E7100FBF000C0EBE00080DBD000425
:100A42000BEB6014A2D5EB13FCED92E7FD2274FFD1
:100A5200FCFDFEFF22E480F8A2D574FF13FC7D802A
:030A6200E480EF3E
:03000000020B8C64
:0C0B8C00787FE4F6D8FD758138020BD3A9
:100A6500EF8DF0A4A8F0CF8CF0A428CE8DF0A42EA5
:020A7500FE225F
:100A7700BC000BBE0029EF8DF084FFADF022E4CC63
:100A8700F875F008EF2FFFEE33FEEC33FCEE9DEC2C
:100A9700984005FCEE9DFE0FD5F0E9E4CEFD22ED72
:100AA700F8F5F0EE8420D21CFEADF075F008EF2FBC
:100AB700FFED33FD4007985006D5F0F222C398FDAD
:050AC7000FD5F0EA224A
:0E0ACC00C3E49FFFE49EFEE49DFDE49CFC223B
:100B9800020FC2E493A3F8E493A34003F68001F2A2
:100BA80008DFF48029E493A3F85407240CC8C3335E
:100BB800C4540F4420C8834004F456800146F6DF2D
:100BC800E4800B0102040810204080901033E47E7A
:100BD800019360BCA3FF543F30E509541FFEE49322
:100BE800A360010ECF54C025E060A840B8E493A3E9
:100BF800FAE493A3F8E493A3C8C582C8CAC583CA14
:100C0800F0A3C8C582C8CAC583CADFE9DEE780BECB
:0110460000A9
:00000001FF
