:03000000020BA749
:0C0BA700787FE4F6D8FD758156020BEE55
:101184000E0DC0F9A4B0999282F88090FFBFC68E6C
:1009D800E54EB4010885174F8517508018EF75F05C
:1009E8000A84240DF8E6F54FEF75F00A84740D2596
:1009F800F0F8E6F550851851E54EB402088517520F
:100A08008517538018ED75F00A84240DF8E6F55221
:100A1800ED75F00A84740D25F0F8E6F55385185441
:100A2800E54EB403088517558517568018EB75F001
:100A38000A84240DF8E6F555EB75F00A84740D2543
:100A4800F0F8E6F55690E00074FFF0AF087401A8DE
:100A580007088002C333D8FC90C000F0744F250803
:100A6800F8E690E000F00508E508C394084003E4C0
:020A7800F5087F
:010A7A002259
:040B1700AB07AA0678
:100B1B0085184B850E4C85184D85174E7C037DE84B
:100B2B00120422740D2FF8E6F54F7C007D64AF03A1
:100B3B00AE021204227C007D0A120422740D2DF8E1
:100B4B00E6F5507C007D0AAF03AE021204227C0056
:100B5B007D0A120422740D2DF8E6F551AE02AF0397
:100B6B007C007D0A120422740D2DF8E6F55290E0FC
:100B7B000074FFF0AF097401A807088002C333D8D3
:100B8B00FC90C000F0744B2509F8E690E000F005EE
:0B0B9B0009E509C394084003E4F509D4
:010BA600222C
:0805D1008E4B8F4C8C4D8D4EBA
:1005D900BB010E85174F8517508517518517528016
:1005E90056AE4BAF4C7C037DE8120422740D2FF8F4
:1005F900E6F54FAE4BAF4C7C007D641204227C00C3
:100609007D0A120422740D2DF8E6F550AE4BAF4C5D
:100619007C007D0A1204227C007D0A120422740DDA
:100629002DF8E6F551AE4BAF4C7C007D0A12042241
:10063900740D2DF8E6F552BB020E85175385175434
:100649008517558517568056AE4DAF4E7C037DE80C
:10065900120422740D2FF8E6F553AE4DAF4E7C000F
:100669007D641204227C007D0A120422740D2DF887
:10067900E6F554AE4DAF4E7C007D0A1204227C0093
:100689007D0A120422740D2DF8E6F555AE4DAF4ED4
:100699007C007D0A120422740D2DF8E6F55690E0CF
:1006A9000074FFF0AF0A7401A807088002C333D8A9
:1006B900FC90C000F0744F250AF8E690E000F005C0
:0B06C9000AE50AC394084003E4F50AA8
:0106D4002203
:04093200AB07AA065F
:1009360085184B850F4C85184D7C277D1012042297
:10094600740D2FF8E6F54E7C037DE8AF03AE021278
:1009560004227C007D0A120422740D2DF8E6F54F60
:100966007C007D64AF03AE021204227C007D0A1275
:100976000422740D2DF8E6F5507C007D0AAF03AE17
:10098600021204227C007D0A120422740D2DF8E660
:10099600F551AE02AF037C007D0A120422740D2DC0
:1009A600F8E6F55290E00074FFF0AF0B7401A8076B
:1009B600088002C333D8FC90C000F0744B250BF8B6
:1009C600E690E000F0050BE50BC394084003E4F560
:0109D6000B15
:0109D70022FD
:100EBB00850D4B740D2FF8E6F54C90E00074FFF0A8
:100ECB00E50C2406FF7401A807088002C333D8FC85
:100EDB0090C000F0744B250CF8E690E000F0050C88
:0A0EEB00E50CC394024003E4F50C8B
:010EF50022DA
:1011E800EF75F00A84C454F0FEEF75F00A84EE251A
:0311F800F0FF22E3
:0F120B00EFC4540F75F00AA4FEEF540F2EFF220C
:10105200AC07C293C2A3C297D293AF051211E8ADF7
:0310620007AF04D1
:10106500E4FEC297EF1392A3EFC313FFD2970EBE10
:0210750008F081
:011077002256
:10000300D2A3E4FEEFC313FFC29730A303430780D9
:06001300D2970EBE08EEBC
:0100190022C4
:0B126B00121052AF05121065C2932252
:0B125300121052120003C29312120B83
:01125E00226D
:10109D00E4FD7F8E12126BE4FD7F8012126B7D3B9F
:1010AD007F8212126B7D177F8412126B7D807F8E73
:0310BD0002126BB1
:07122900C2A1121230D2A095
:0612300000007F0CDFFE50
:011236002295
:0A128100D2A112122BC2A1021230FA
:08128B00121229D2A102123057
:0B1128001210C0121133AF041210C0EF
:101133007EC8D2A012123030A106AF061EEF70F7A0
:05114300121230C2A0F1
:011148002284
:0F121A00D2A0121230D2A1121230C2A002123092
:0B127600121229C2A0121230D2A122D5
:0210C000AE0779
:1010C200E4FDC2A0121230EE30E704D2A18002C2C7
:1010D200A1121230D2A0EE25E0FE0DBD08E4C2A09E
:0110E20022EB
:10110600D2A1E4FDEE25E0FED2A012123030A103FA
:10111600430601121230C2A01212300DBD08E5AF0F
:0111260006C2
:0111270022A5
:1011BB00AC05AB071212817FA01210C0121133AF16
:0711CB000312112802128B30
:020F6800AC07D4
:100F6A001212817FA01211281212817FA11210C0C1
:100F7A00121133E4FCECC395485014121106EF1217
:100F8A0003EE121276740129F9E43AFA0C80E61299
:050F9A00121A02128B87
:0210E300AC0758
:1010E5001212817F901211281212817F911210C065
:1010F500121133121106AE0712121A12128BAF0615
:0111050022C7
:100DF800D2C2D2C4E4FF7401A807088002C333D862
:100E0800FCF4F5B020C408EF25E025E004FF22201B
:100E1800C209EF25E025E02402FF2220B509EF25CD
:100E2800E025E02403FF2220B409EF25E025E02493
:090E380004FF220FBF04BF7F007C
:010E4100228E
:10114900120DF8EFD39400400FE51B9403500305EB
:0D1159001B22751B0AD20222C202E4F51B04
:011166002266
:0B125F00E4FF300206120DF82002FD33
:01126A002261
:0E123700E4F58CF58A5389F0438904D28C22A9
:0E124500758DFC758B1853890FD2ABD28E229B
:1011FB00538EFB75D76675D6FC438E1043AF042216
:100EF600121028E534146015146017146019146074
:100F06001B14601D2405701C120E42801712001E51
:100F16008012120F9F800D120CFB80081207AA8008
:090F2600031211A0120D5680CA3D
:03001B000206D505
:1006D500C0E0C0F0C083C082C0D075D000C000C0EB
:0D06E50001C002C003C004C005C006C0076C
:1006F200E53464037033D28C0522E52270020521B1
:10070200D394E8E52194034020752100752200AFBF
:100712008CEFFEAD8A7C00E42DF53BEC3EF53AC24F
:100722008C758C00758A00D28CE534B4012C0524BA
:10073200E52470020523D394E8E5239403400B7566
:1007420023007524008538398040E52464F4700460
:10075200E52364017034F5398030E534B4042805AA
:1007620024E52470020523D394E8E5239403400B87
:10077200752300752400854239800FE524B4F40AFC
:0D078200E523B4010580007539001211490E
:10078F00D007D006D005D004D003D002D001D000BE
:0B079F00D0D0D082D083D0F0D0E03268
:0300630002087D13
:10087D00C0E0C0F0C083C082C0D075D000C000C041
:10088D0001C002C003C004C005C006C007E5341492
:10089D0060101460181460411460471460532405EF
:1008AD00706585394EAB37AD36AF3580507F03124D
:1008BD0010E3AC07E41202167B007A40799C784570
:1008CD00120066E4FBFA797F784312016F12024A37
:1008DD008E3C8F3D120B17802EAF26AE251209329E
:1008ED008025AB39AD41AC40AF3FAE3E1205D18056
:1008FD001630010E754E00AB31AD30AF2F1209D849
:10090D008005AF2E120EBB120F2FD007D006D005CB
:10091D00D004D003D002D001D000D0D0D082D0836B
:05092D00D0F0D0E03223
:10102800C2AF7DFF7C03E4FFFE120E7F1210781220
:1010380011D27B007A007927120DAA12109D121284
:0A104800371212451211FBD2AF223D
:1011D20090800074FFF090A000E4F090C00074FFD3
:0611E200F090E000F02295
:100E42007F851212538F357F831212538F367F8123
:100E52001212538F3712125FEF24FB601224FC60D0
:100E62001814600F24FD7014753801753401227551
:0C0E7200340222C20175340522753403DD
:010E7E002251
:10001E0012125FEF14601E14601524FC601424F994
:10002E00702B0538E538D39403402275380122022F
:10003E000FCE020FFBAD377F8012126BAD367F8273
:0D004E0012126BAD357F8412126BE4F53495
:01005B002282
:100FCE00E538B4010AE535C394175020053522E5FE
:100FDE0038B4020AE536C3943B5011053622E53883
:0D0FEE00B40309E537C3943B5002053722D8
:100FFB00E538B4010AE535D394004020153522E5D8
:10100B0038B4020AE536D394004011153622E53880
:0D101B00B40309E537D394004002153722D5
:100F9F0012125FEF14602024FC601224FC601C14FA
:100FAF00600F24FD701875420175340422753402E8
:0E0FBF0022C20175340522E4F5342275340394
:010FCD002201
:1007AA0012125FEF24FE602124FD7003020849142F
:1007BA00605224F9600302087C0542E542D39402A0
:1007CA00500302087C75420122E542B40118C3E5D0
:1007DA003F9488E53E9413400302087C74F4253F55
:1007EA00F53F74018036E5426402600302087CC367
:1007FA00E5419488E5409413507874F42541F54115
:10080A0074018036E542B40118D3E53F9400E53E11
:10081A009400405E740C253FF53F74FE353EF53E6C
:10082A0022E5426402704BD3E5419400E54094000E
:10083A004040740C2541F54174FE3540F54022AE26
:10084A003EAF3F7C007D641204228F327B007A0027
:10085A0079277D04120C33AE40AF417C007D6412CF
:10086A0004228F307B007A0079277D05120C3375BC
:02087A00340246
:01087C002259
:1011A00012125FEF24FB600B24FC600B24FC700A1E
:0A11B000B2012275340222753403E7
:0111BA002212
:100CFB0012125FEF14601F24FC600F24FC601C14A5
:100D0B00600D24FD7018B2008014753402800FC280
:100D1B00017534058008E4F5348003753403300025
:100D2B0007853A25853B2622AC3AAD3BE4120211EE
:100D3B00A804A905AA06AB077F007E247D747C4915
:0A0D4B0012016F12024A8E258F2656
:010D5500227B
:100D5600E53D653F7004E53C653E7005752E0180F6
:100D66000FE53D65417004E53C65407036752E0221
:100D7600FB7A007927FD120C3385352F7B007A002C
:100D860079277D01120C338536307B007A0079276E
:100D96007D02120C338537317B007A0079277D037B
:040DA600120C3322D6
:100F2F00784C7C007D007B007A0079277E007F075C
:100F3F0012039B121167EF4E601E754F0075500024
:100F4F0075514B7B007A007927120C9A742E254B22
:080F5F00F8E6FDAF4B1211BBD7
:010F67002267
:101078007B007A00792E754806E4FF120F68E53286
:1010880075F064A485F03EF53FE53075F064A485FD
:05109800F040F54122CB
:100DAA008B448A4589467F0A7E00120A7BAA06A9D5
:100DBA00077B01C003C002C001AB44AA45A9461281
:100DCA000540AB44AA45A946120520EA494B7003DF
:100DDA007F0222AB44AA45A946900005E4F5F01229
:0E0DEA0004E5900003E4F5F01204E57F012219
:10116700C3E5529550CFE551954FCF240ACF3400B0
:0D117700FE7C007D0A120477AE04AF052255
:100C33008D478B448A4589469000051204AD2401F3
:100C4300FFE435F0FE7C007D0A1204779000031266
:100C530004ADB50507ECB5F0037F00229000051243
:100C630004ADFFAEF01205208F828E83E547120498
:100C730000AB44AA45A9469000051204AD2401FF28
:100C8300E435F0FE7C007D0A120477900005EC8DBC
:070C9300F01204E57F0122CD
:100C9A008B4C8A4D894E9000051204ADFFAEF09040
:100CAA0000031204ADFDACF0B50707ECB506037FEF
:100CBA000022AB4CAA4DA94E1205208D828C8312BC
:100CCA0003C1AB4FAA50A9511203EEAB4CAA4DA9CE
:100CDA004E9000031204AD2401FFE435F0FE7C00BF
:100CEA007D0A120477900003EC8DF01204E57F016F
:010CFA0022D7
:10006600EC4D6011E8497017ED33EC3304600DE494
:10007600FCFFFEFD22E933E8330470F80202B612F3
:10008600028158046009E4CC2481500628500902F4
:1000960002C02840030202BDC0E0EB4A7044B980AA
:1000A60006D0E0FB0202ACEF4E701CBD8008EBFFF1
:1000B600EAFEE9FD80EBE98DF0A4FEE5F002014FD2
:1000C600E9CDF9EAFEEBFFEF89F0A4FCE5F0CE8975
:1000D600F0A42EFFE435F0CD89F0A42DFEE435F032
:1000E6008067EF4E7005BD80D780C3EF8BF0A4AC60
:1000F600F0EE8BF0A42CFCE435F0F8EF8AF0A42C9B
:10010600E5F038FCE433CB8DF0A42CFCE5F03BF8AD
:10011600EE8AF0A42CFCE5F038F8E433CF89F0A49D
:100126002CFCE5F038CF3400CE89F0A42FFFE5F0A3
:100136003EFEE433C98DF0A42EFEE5F039CD8AF0FB
:10014600A42FFFE5F03EFEE43DFD33D0E0FB500773
:100156000BBB000F0202C0EC2CFCEF33FFEE33FEAC
:06016600ED33FD020298DA
:10016C000202C0EC5D046005E8590470030202B69B
:10017C00120281580460F6EC4860F2EC7004FDFE4B
:10018C00FF22C860DB2481C85009C3986002500666
:10019C000202BD9850CAF582E9294B4A7005AB8220
:1001AC000202AC75F0007C1A7880C3EF9BEE9AEDDE
:1001BC0099400DC3EF9BFFEE9AFEED99FDE842F0DE
:1001CC00DC23ACF0D0E0FFD0E0FED0E0FDAB822031
:1001DC00E7101BEB60BAEC2CFCEF33FFEE33FEEDBB
:1001EC0033FD020298E803F830E705C0F075F00023
:1001FC00EF2FFFEE33FEED33FD40B830E7C280AA9F
:10020C0075F020800E75F010800575F0087D007E6D
:10021C00007F003392D530D503120512EC33401019
:10022C00EF33FFEE33FEED33FDEC33FCD5F0ED2276
:0E023C00E5F0247EA2D513CC92E7CDCEFF22B2
:10024A00EDD2E7CD33EC3392D524814006E4FFFEAC
:10025A00FDFC22FCE4CFCECDCC24E0501174FF800B
:10026A00EDC3CC13CCCD13CDCE13CECF13CF0470A8
:07027A00F030D5DE02051291
:10028100E9D2E7C933E833F892D5EDD2E7CD33ECC3
:0702910033FC5002B2D5223C
:10029800EC30E7100FBF000C0EBE00080DBD0004C7
:1002A8000BEB6014A2D5EB13FCED92E7FD2274FF73
:1002B800FCFDFEFF22E480F8A2D574FF13FC7D80CC
:0302C800E480EFE0
:100BB300020EF6E493A3F8E493A34003F68001F254
:100BC30008DFF48029E493A3F85407240CC8C33343
:100BD300C4540F4420C8834004F456800146F6DF12
:100BE300E4800B0102040810204080901184E47E0D
:100BF300019360BCA3FF543F30E509541FFEE49307
:100C0300A360010ECF54C025E060A840B8E493A3CD
:100C1300FAE493A3F8E493A3C8C582C8CAC583CAF8
:100C2300F0A3C8C582C8CAC583CADFE9DEE780BEB0
:01119400005A
:1002CB00E709F608DFFA8046E709F208DFFA803E15
:1002DB0088828C83E709F0A3DFFA8032E309F60802
:1002EB00DFFA8078E309F208DFFA807088828C836A
:1002FB00E309F0A3DFFA806489828A83E0A3F6081E
:10030B00DFFA805889828A83E0A3F208DFFA804CF7
:10031B0080D280FA80C680D4806980F280338010CE
:10032B0080A680EA809A80A880DA80E280CA803337
:10033B0089828A83ECFAE493A3C8C582C8CCC583AF
:10034B00CCF0A3C8C582C8CCC583CCDFE9DEE7807F
:10035B000D89828A83E493A3F608DFF9ECFAA9F0FE
:10036B00EDFB2289828A83ECFAE0A3C8C582C8CC54
:10037B00C583CCF0A3C8C582C8CCC583CCDFEADE6D
:10038B00E880DB89828A83E493A3F208DFF980CCCF
:10039B0088F0EF60010E4E60C388F0ED2402B404C8
:1003AB000050B9F582EB2402B4040050AF2323456F
:0603BB00822390031B7376
:1003C100BB010CE58229F582E5833AF583E02250F1
:1003D10006E92582F8E622BBFE06E92582F8E2223B
:0D03E100E58229F582E5833AF583E4932255
:1003EE00BB010689828A83F0225002F722BBFE01EE
:0203FE00F322E8
:10040000F8BB010DE58229F582E5833AF583E8F032
:10041000225006E92582C8F622BBFE05E92582C8DE
:02042000F222C6
:10042200BC000BBE0029EF8DF084FFADF022E4CCBE
:10043200F875F008EF2FFFEE33FEEC33FCEE9DEC87
:10044200984005FCEE9DFE0FD5F0E9E4CEFD22EDCD
:10045200F8F5F0EE8420D21CFEADF075F008EF2F17
:10046200FFED33FD4007985006D5F0F222C398FD08
:050472000FD5F0EA22A5
:10047700C2D5EC30E709B2D5E4C39DFDE49CFCEEA0
:1004870030E715B2D5E4C39FFFE49EFE120422C3F2
:10049700E49DFDE49CFC800312042230D507C3E4ED
:0604A7009FFFE49EFE220F
:1004AD00BB0110E58229F582E5833AF583E0F5F08D
:1004BD00A3E0225009E92582F886F008E622BBFE6A
:1004CD000AE92582F8E2F5F008E222E5832AF583B0
:0804DD00E993F5F0A3E9932275
:1004E500F8BB0111E58229F582E5833AF583E8F049
:1004F500E5F0A3F0225009E92582C8F608A6F02206
:0D050500BBFE09E92582C8F2E5F008F222EC
:0E051200C3E49FFFE49EFEE49DFDE49CFC22FA
:10052000BB010789828A830205A15005E9F802050B
:100530008FBBFE05E9F80205B389828A830205C5EF
:10054000BB011A89828A83D0F0D0E0F8D0E0F9D0DC
:10055000E0FAD0E0FBE8C0E0C0F00205AA5016E9DE
:10056000F8D083D082D0E0F9D0E0FAD0E0FBC082AE
:10057000C083020598BBFE16E9F8D083D082D0E094
:0F058000F9D0E0FAD0E0FBC082C0830205BC22B4
:100A7B008E478F487E007F008F828E83E0FCA3E041
:100A8B00FD4C7003FEFF228D828C83A3A3E0FAA39F
:100A9B00E0FBC39548EA95475008CEECCECFEDCF9F
:100AAB0080D6C3EB9548F54AEA9547F549C3E54A25
:100ABB009410E549940050198D828C83E0FBA3E0E0
:100ACB008F828E83CBF0A3EBF0ED2404FFE43CFE8E
:100ADB002274FC254AF54A74FF3549F5498D828C01
:100AEB0083A3A3F0A3E54AF0ED2404FFE43CFEEF5F
:100AFB00254AFFEE3549FE8F82F583A3A3E547F028
:0C0B0B00A3E548F0EF2404FFE43EFE22C6
:0B119500480000000000000000000007
:100E7F00EF4E7008FE7F01ED1D70011C900000EE1B
:100E8F00F0A3EFF0A3ECF0A3EDF0900000E0FEA3D1
:100E9F00E0FFF5828E83E4F0A3F0ED24FCFDEC344B
:0C0EAF00FF8F828E83A3A3F0A3EDF0223E
:09058F00E6FB08E6FA08E6F92291
:09059800EBF608EAF608E9F62288
:0905A100E0FBA3E0FAA3E0F9225B
:0905AA00EBF0A3EAF0A3E9F02252
:0905B300E2FB08E2FA08E2F92279
:0905BC00EBF208EAF208E9F22270
:0C05C500E493FB740193FA740293F92292
:00000001FF
