:0C0AF4000A11C0F9A4B0999282F8809019
:1008CC00EF75F00A842411F8E6F508EF75F00A8448
:1008DC00741125F0F8E6F509ED75F00A842411F889
:1008EC00E6F50AED75F00A84741125F0F8E6F50BBF
:1008FC00EB75F00A842411F8E6F50CEB75F00A841C
:10090C00741125F0F8E6F50DE51E75F00A84241136
:10091C00F8E6F50EE51E75F00A84741125F0F8E67C
:10092C00F50F90E00074FFF0AF107401A807088079
:10093C0002C333D8FC90C000F074082510F8E69080
:0F094C00E000F00510E510C394084003E4F51037
:01095B002279
:100AC700120AD8A29192B23000F9120A378F268003
:010AD700F22C
:0E0AD800C2AF120A9F120AE6120B09D2AF2219
:100A9F0090800074FFF090A000E4F090C00074FF0D
:060AAF00F090E000F022CF
:03000B000209E8FF
:1009E800C0E0C0F0C083C082C0D075D000C000C0D5
:1009F80001C002C003C004C005C006C007E52675D3
:100A0800F06484FBE52675F0648485F01EAD27AF9D
:100A1800251208CCD007D006D005D004D003D002C8
:0F0A2800D001D000D0D0D082D083D0F0D0E03237
:03000300020800F0
:10080000C0E0C0F0C083C082C0D075D000C000C0BE
:0D08100001C002C003C004C005C006C0073F
:10081D00E4FBC201F51F3091FD120AB5AB07EBC326
:10082D0094FA40030208B1EBC394C84009EB94FA63
:10083D005004D2018034EBC3940A400AEB94325039
:10084D0005751F008024EBC39432400AEB9464506D
:10085D0005751F018014EBC39464400EEBD394C84F
:10086D005008D20005250527803A3001A9AF24AEE6
:10087D0023AD22AC217801120A8C8F248E238D2278
:10088D008C21E4FCFDFEE524251FF524EE3523F532
:10089D0023ED3522F522EC3521F52175250075273F
:0408AD000102082319
:1008B100D007D006D005D004D003D002D001D0009B
:0B08C100D0D0D082D083D0F0D0E03245
:0E0AE600758CF8758A305389F0D2A9D28C2213
:050B0900D2A8D28822F1
:070B01000000007F34DFFE5D
:010B080022CA
:100AB500E4FE30910A0E120B01BEFAF6AF0622AF24
:010AC500062A
:010AC600220D
:100A3700AF24AE23AD22AC217818120A78AB07AFEA
:100A470024AE23AD22AC217810120A78E4AA07AFAE
:100A570024AE23AD22AC217808120A78AE24C20056
:100A6700EAF4B50309EB7006EEF4B50701227F003F
:010A7700225C
:0300000002095C96
:0C095C00787FE4F6D8FD7581270209A31E
:100A7800E86010ECA2E713FCED13FDEE13FEEF1394
:040A8800FFD8F02281
:100A8C00E8600FEFC333FFEE33FEED33FDEC33FCC8
:030A9C00D8F1226C
:10096800020AC7E493A3F8E493A34003F68001F2D4
:1009780008DFF48029E493A3F85407240CC8C33390
:10098800C4540F4420C8834004F456800146F6DF5F
:10099800E4800B0102040810204080900AF4E47EF1
:1009A800019360BCA3FF543F30E509541FFEE49354
:1009B800A360010ECF54C025E060A840B8E493A31B
:1009C800FAE493A3F8E493A3C8C582C8CAC583CA46
:1009D800F0A3C8C582C8CAC583CADFE9DEE780BEFE
:010B000000F4
:00000001FF
