:040000000C944A0012
:140054004001313533303330333031303137110101010101E9
:1400680001010000010101010101013440021E0C1E0C1E0C87
:14007C001E0C1E0C1E0C1E0C1E0C1E0C1E0C1E0C1E0C1E0CCC
:140090001E0C1E34CFE5D4E0CDBFDEBFCE51D0400AEA0883A1
:1400A4000024E0EAF0E010E0E03AF10711F00192FBCF0083A7
:1400B800E4E5F0E0A0E6B0E010E000E00BBFE439F10721F0C5
:1400CC00C89531960D92F9CF0E947F00FFCFAA924A93AA24BF
:1400E00006C0442701C043954537E8F3A3942A2C33242016D1
:1400F4003106A8F34991A99008950EC000E610E00E94A5008B
:1401080004EF11E0E6DF00E810E00E94A50004EF11E0DFDF79
:14011C00F1CF089522242AB82BB880B5866880BD84E389B95E
:1401300020BC8AB188618AB908955D9BFECF0CB908955F9BBA
:14014400FECF0CB108954A935A93A80105C0FA010081F1DFFC
:120158004F5F5F4FFA0120802220B9F75991499108954B
:00000001FF
