:040000000C944D000F
:04002C000C947B00B5
:14005400003030302E303030303030000000000000000000BA
:14006800000000000000000102030405060708091011121311
:14007C001415161718192021222324252627282930313234B5
:090090004310100134431010016B
:14009A00CFE5D4E0CDBFDEBFCE51D0400AEA08830024E5EA20
:1400AE00F0E011E0E230F10711F00192FBCF0083E4E5F0E0F9
:1400C200A0E6B0E010E000E00BBFE939F10721F0C89531962B
:1400D6000D92F9CF0E94C402FFCF22242BB886E880BD20BCC9
:1400EA0083E389B988E98AB9789408952A920A932A933A931A
:1400FE008A939A93AA93EA93FA932FB62A920CB1202F332756
:140112002432E0E03E0771F02432E0E03E070CF443C02A3263
:14012600E0E03E07B9F02C32E0E03E0751F03AC02224209281
:14013A00F90081E08093F8002092F600FFC18091F7008F5FEE
:14014E008093F70022242092F600F6C181E080936B0020915E
:14016200F90033272130E0E03E0749F02230E0E03E0759F007
:140176002330E0E03E0769F011C0809160008160809360002E
:14018A000BC08091600082608093600005C0809160008460B6
:14019E008093600022242092F800CEC18091F800813009F0A8
:1401B20083C081EF90E0E091F600FF27E80FF91F00838091E6
:1401C600F600843009F0B7C12090F100822D873411F0823448
:1401DA00F9F48091F200803521F0843411F08E34B9F4809122
:1401EE00F300873499F48091F400873479F48091F5008134DA
:1402020059F481E08093F90082E08093F80022242092F700D2
:140216002092F6002090F100822D873411F08234F1F4809174
:14022A00F200803521F0843411F08E34B1F48091F300873429
:14023E0091F48091F400833571F48091F500863551F482E09D
:140252008093F9008093F80022242092F7002092F600209139
:14026600F100273419F0223409F065C18091F200803529F0E9
:14027A00843419F08E3409F05CC18091F300823509F057C10B
:14028E008091F4008D3409F052C18091F500833409F04DC1C6
:1402A20083E08093F90082E08093F80022242092F7002092CB
:1402B600F60041C18091F800823009F03CC12091F900332787
:1402CA002130E0E03E0759F02230E0E03E0709F47AC02330A0
:1402DE00E0E03E0709F48BC02AC12091F70033272230E0E0C0
:1402F2003E07E9F02330E0E03E0739F12430E0E03E0759F1B5
:140306002530E0E03E0709F434C02630E0E03E0709F437C049
:14031A002730E0E03E0709F43AC02930E0E03E0709F443C01E
:14032E0006C18091F600893008F001C188EE90E0E091F6002D
:14034200FF27E80FF91F0083F8C08091F600813008F0F3C0D4
:140356000093E700F0C08091F6008A3008F0EBC08DED90E01B
:14036A00E091F600FF27E80FF91F0083E2C08091F600813006
:14037E0008F0DDC00093DC00DAC08091F600813008F0D5C088
:140392000093FE00D2C08091F600823008F0CDC08CEF90E00B
:1403A600E091F600FF27E80FF91F0083C4C08091F6008630E3
:1403BA0008F0BFC086ED90E0E091F600FF27E80FF91F0083B6
:1403CE00B6C02091F70033272330E0E03E0709F0AEC08091D3
:1403E200F600823008F0A9C08AEF90E0E091F600FF27E80F91
:1403F600F91F0083A0C02091F70033272130E0E03E0749F166
:14040A002230E0E03E0709F432C02330E0E03E0709F43EC045
:14041E002430E0E03E0709F447C02530E0E03E0709F44AC00C
:140432002630E0E03E0709F453C02730E0E03E0709F455C0DD
:140446002830E0E03E0709F45DC02930E0E03E0709F465C0AB
:14045A0070C08091F600863008F06BC08AEC90E0E091F60031
:14046E00FF27E80FF91F008362C08091F600813008F05DC0D3
:14048200013419F481E08093FE00063509F055C02224209271
:14049600FE0051C08091F600893008F04CC088EE90E0E09128
:1404AA00F600FF27E80FF91F008343C08091F600813008F0DD
:1404BE003EC00093E7003BC08091F6008A3008F036C08DED8E
:1404D20090E0E091F600FF27E80FF91F00832DC08091F60093
:1404E600813048F50093DC0026C08091F600853010F581E697
:1404FA0090E0E091F600FF27E80FF91F008319C08091F6007F
:14050E008530A8F486E690E0E091F600FF27E80FF91F00838D
:140522000CC08091F600863040F480ED90E0E091F600FF279E
:14053600E80FF91F00838091F6008F5F8093F60029902FBE7B
:14054A00F991E991A991999189913991299109912990189597
:14055E000E946304442755270BC06627772702C06F5F7F4F45
:140572006437E4E07E07D0F34F5F5F4F4017510790F30C94A0
:1405860068048FEF84BB81B3806F81BB88EB87BB8FEF88BB63
:14059A008AB38F738ABB8BB3806C8BBB0E9425049ADD10C047
:1405AE0020906B00222061F00DD005EA10E00E940A042FEF01
:1405C20007E20E94C703222420926B00EFCF08950E946D04FF
:1405D60083E48093A50081E08093A60042E01DC088EC90E0F5
:1405EA00E42FFF27E80FF91F208085EA90E0E42FFF27E80F06
:1405FE00F91F20828EEC90E0E42FFF27E80FF91F20808BEAE8
:1406120090E0E42FFF27E80FF91F20824395483008F369B313
:140626007727607C70706034E0E07E0749F06034E0E07E077B
:14063A006CF06038E0E07E0729F008C080E18093B30007C0A4
:14064E0081E08093B30003C081E18093B30044271BC08CE6CE
:1406620090E0E42FFF27E80FF91F2080222049F083EB90E0D3
:14067600E42FFF27E80FF91F81E0808308C083EB90E0E42F0B
:14068A00FF27E80FF91F2224208243954E3018F38091CF00FE
:14069E00803348F08CE62090CF00821520F081E08093C2008F
:1406B20003C022242092C20041E009C085EA90E0E42FFF27B5
:1406C600E80FF91F2080A20C43954D31A8F30A2D112710D083
:1406DA000030010721F081E08093C30003C022242092C3000E
:1406EE00AA2484E38093C4000C9474044A935A934427552723
:1407020004C0402751271695079500300107C9F78A01017005
:1407160010705991499108954A935A934427552702C04F5FCD
:14072A005F4F40175107D8F34427552702C04F5F5F4F401737
:14073E005107D8F3599149910895AA924A93AA2444270DC004
:1407520007FF02C0C59A01C0C598000FAA0CC79AB49B01C018
:14076600A394C7984395483088F30A2D4991A9900895AA92FB
:14077A00A02EC4980A2DE3DF0027E1DFA02EC49AA99008955F
:14078E00AA92CA92C22EA02EC4980A2DD6DFA02E0C2DD3DF00
:1407A200C49A0A2DC990A99008950E945A047901A02EC884EB
:1407B600C4980A2DC6DFA02EBB244427552708C00027BFDFD6
:1407CA00FA01EE0DFF1D00834F5F5F4F2C2C332442155305CC
:1407DE009CF3C49A0A2D0C944F040E945A047901A02E4885DB
:1407F200C4980A2DA8DFA02ECC2405C0F70101917F01A1DFCC
:14080600C394C416C8F3C49A0A2D0C944F04AA92BA92580189
:14081A002197C39885E088832BE930E00AE2DFDF80E288830C
:14082E00950100EADADF2EE000E2AADFC39A08E512E06EDF7B
:140842002196B990A99008952197C398C49AC79885E088838C
:140856002BE930E000E3C5DF85E0888320EA30E00AE2BFDFCF
:14086A0021E001E28FDF21E002E28CDF2AE104E289DF23E07C
:14087E0005E286DF27E006E283DF20E201E380DF2EE000E294
:140892007DDF00E717E142DF21960895A990B990C990D9905E
:1408A600E990F9904991599108957A936A935A934A93FA927B
:1408BA00EA92DA92CA92BA92AA9208957A936A935A934A93ED
:1408CE000895499159916991799108957A936A935A934A9340
:1408E200BA92AA920895A990B99049915991699179910895F6
:00000001FF
