:040000000C94430019
:040050000C947F008D
:040070000C94B70035
:14007C0034431010013443101001CFEFD4E0CDBFDEBFCE5186
:14009000D0400AEA08830024EAE0F1E011E0EE32F10711F004
:1400A4000192FBCF0083ECE7F0E0A0E0B1E010E000E00BBF1A
:1400B800E638F10721F0C89531960D92F9CF0E946900FFCFA9
:1400CC0088EB84B90895FCDF0E9432020E94EF000E942101CD
:1400E0000CC00AE011E00E94FC010AE011E00E94530108EEFF
:1400F40013E00E946A01F3CF08950A921A922A923A924A92ED
:140108005A926A927A928A929A920A931A932A933A938A93B6
:14011C009A93AA93BA93EA93FA930FB60A922090C600209285
:140130002A01022D0E94350106E30E943501789409900FBE56
:14014400F991E991B991A99199918991399129911991099113
:140158009990899079906990599049903990299019900990C9
:14016C0018950A921A922A923A924A925A926A927A928A9216
:140180009A920A931A932A933A938A939A93AA93BA93EA931A
:14019400FA930FB60A922090CE0020922A01022D0E94030139
:1401A80006E30E940301789409900FBEF991E991B991A991BA
:1401BC009991899139912991199109919990899079906990DF
:1401D000599049903990299019900990189522242092C80028
:1401E4008091C90088698093C9008091CA0086608093CA00C2
:1401F80084E38093CC002092CD00789408952090C80025FEEA
:14020C00FCCF0093CE0008952090C80027FEFCCF0091CE004E
:1402200008954A935A93A80105C0FA010081EBDF4F5F5F4F53
:14023400FA0120802220B9F759914991089522242092C00010
:140248008091C10088698093C1008091C20086608093C2007D
:14025C0084E38093C4002092C500789408952090C00025FE9D
:14027000FCCF0093C60008952090C00027FEFCCF0091C60002
:1402840008954A935A93A80105C0FA010081EBDF4F5F5F4FEF
:14029800FA0120802220B9F75991499108950E947B02B8018C
:1402AC00442706C0FB010081A8DF6F5F7F4F43954032C0F370
:1402C0000C9480020150104081E090E080179107C8F308950F
:1402D4004A935A93A80105C008EE13E0F1DF41505040403094
:1402E8004507C1F75991499108954A935A934427552702C02A
:1402FC004F5F5F4F40175107D8F34427552702C04F5F5F4F13
:1403100040175107D8F3599149910895AA924A93AA244427AC
:140324000DC007FF02C02D9A01C02D98000FAA0C2F9A1E9B9C
:1403380001C0A3942F984395483088F30A2D4991A990089540
:14034C00AA92A02E2C980A2DE3DF0027E1DFA02E2C9AA99022
:140360000895AA92CA92C22EA02E2C980A2DD6DFA02E0C2DDF
:14037400D3DF2C9A0A2DC990A99008950E9468027901A02E43
:14038800C8842C980A2DC6DFA02EBB244427552708C00027F2
:14039C00BFDFFA01EE0DFF1D00834F5F5F4F2C2C33244215B8
:1403B00053059CF32C9A0A2D0C945D020E9468027901A02E02
:1403C40048852C980A2DA8DFA02ECC2405C0F70101917F0149
:1403D800A1DFC394C416C8F32C9A0A2D0C945D022B982FE0D7
:1403EC0000E2B9DF2B9A00EB14E07DCF0E947102580121976D
:140400004427F2DF07E0A2DF00932D0106FF07C02B9880E292
:140414008883950101E6B2DF41E020912D0107E29EDF042F22
:1404280021960C947602AA92BA92580121972B9885E0888325
:14043C0020E031E00AE2BCDF80E28883950100EAB7DF2EE083
:1404500000E287DF2B9A08E512E04BDF2196B990A9900895AC
:1404640021972B982C9A2F9885E0888320E031E000E3A2DF97
:1404780085E0888325E031E00AE29CDF21E001E26CDF21E053
:14048C0002E269DF2AE104E266DF23E005E263DF27E006E2DF
:1404A00060DF20E201E35DDF2EE000E25ADF2B9A00E717E11A
:1404B4001EDF21960895A990B990C990D990E990F9904991C3
:1404C800599108957A936A935A934A93FA92EA92DA92CA92F5
:1404DC00BA92AA9208955A934A93BA92AA920895A990B99076
:1404F0004991599108957A936A935A934A9308954991599162
:0605040069917991089550
:00000001FF
