:03000000020BF7F9
:0C0BF700787FE4F6D8FD75814C020C3EBE
:030FE800013100D4
:100E9A00120E37E5311460121460141460161460CF
:100EAA0018240470EE120CEE80E9120F6780E41227
:0E0EBA000F7E80DF120D8C80DA12080080D5CA
:03000B00020A7B6B
:100A7B00C0E0C0F0C083C082C0D075D000C000C041
:100A8B0001C002C003C004C005C006C007E5311495
:100A9B00602114603514605114607A2404600302E1
:100AAB000B32AB2BAD2AAF29120DC990800074FE0F
:100ABB00F08074AB2EAD2D7F01120EC890800074A8
:100ACB00FDF090A0007410F0805DAB3EAD3D7F0259
:100ADB00120EC890800030000574FBF0800374FF89
:100AEB00F090A0007440F0803EE52F700BAB3BAD57
:100AFB0039AF3A120E00802FE52FB40108AB2EADA3
:100B0B002D7F01800BE52FB4021DAB3EAD3D7F0267
:100B1B00120EC8801285370B853B0C85320DAB3618
:100B2B00AD35AF34120B4DD007D006D005D004D065
:100B3B0003D002D001D000D0D0D082D083D0F0D05F
:020B4B00E03296
:03001B0002094394
:10094300C0E0C0F0C083C082C0D075D000C000C07A
:0D09530001C002C003C004C005C006C007FB
:10096000120EF492010522E52270020521C394F4CF
:10097000E52194015004C200802BC3E52294F4E5E4
:10098000219401400FD3E52294E8E521940350041B
:10099000D2008011D3E52294E8E521940340067546
:1009A0002100752200E531B402380524E524AE2388
:1009B0007002052314C394E8EE94035003020A6006
:1009C000752300752400E53E943C5005053E020A5F
:1009D00060753E00E53DC3943C4003020A60053D5E
:1009E000807EE531B401310526E526AE257002058D
:1009F0002514C394E8EE940340667525007526001F
:100A0000E52E943C5004052E8056752E00E52DC32E
:100A1000943C504C052D8048E53164047042052813
:100A2000E52870020527C394F4E527940150057565
:100A30003200802CC3E52894F4E52794014010D3BC
:100A4000E52894E8E527940350058533328011D3D7
:100A5000E52894E8E52794034006752700752800EB
:100A6000D007D006D005D004D003D002D001D000EA
:0B0A7000D0D0D082D083D0F0D0E03294
:100E3700120FD4120FBF120F957535017536057550
:100E47003703E4F538E53575F00AA42536F53AE5B4
:100E57003775F00AA42538F539753B16753301D275
:020E6700AF22B8
:100FD40090800074FFF090A000E4F090C000F090C6
:040FE400E000F02217
:100F9500758CF8758A30D2A9D28C758DFC758B1835
:050FA500D2ABD28E2248
:100CEE007F851210218F297F831210218F2A7F81F9
:100CFE001210218F2B120E698F30E530C394555090
:100D0E000385303BE53AD3953B500BE53B95395087
:100D1E0005753101800AE53BD395394003753102E3
:100D2E00300110121042BF0D0475310422BF0F03A3
:030D3E0075310309
:010D4100228F
:100F6700300113121042BF100DE4F53190A000F0CC
:060F770090800074FFF001
:010F7D002251
:100F7E00300113121042BF100DE4F53190A000F0B5
:060F8E0090800074FFF0EA
:010F9400223A
:100D8C00120E698F30E530C39455500385303B30DB
:100D9C00012A121042BF100475310322BF040AE568
:100DAC002FC394025016052F22BF080AE52FD394A7
:0C0DBC00004009152F22BF1003E4F531A0
:010DC8002208
:10080000120E698F30E530C39455500385303B207C
:100810000103020942121042EF14B4100040030217
:10082000094290083075F003A4C58325F0C5837391
:1008300002086002087402088802094202089C0249
:1008400008B00208C40209420208D50208E60208FC
:10085000F7020908020942020914020942020928A2
:1008600074342533F87601E533C394044003020958
:100870004205332274342533F87602E533C39404F9
:10088000400302094205332274342533F87603E528
:1008900033C39404400302094205332274342533E0
:1008A000F87604E533C39404400302094205332279
:1008B00074342533F87605E533C394044003020904
:1008C0004205332274342533F87606E533C39404A5
:1008D000507005332274342533F87607E533C3941A
:1008E00004505F05332274342533F87608E533C3AA
:1008F0009404504E05332274342533F87609E533D9
:10090000C39404503D053322E4F538F537F536F548
:1009100035753301AF33053374342FF8E4F6E5331E
:10092000C39404501D053322753301E4F531E535D8
:1009300075F00AA42536F53AE53775F00AA425388E
:02094000F53987
:010942002292
:08105A007F067E97DEFEDFFC3D
:01106200226B
:081063007F017EBFDEFEDFFC11
:01106B002262
:0A105000C29412105AD29402105AF2
:020F4D00AD07EE
:100F4F00E4FBC294ED139294121063D294EDC31389
:080F5F00FD0BBB08ED0210635D
:100F3100E4FCEDC313FDC294D294309405430580C3
:0B0F410080001210630CBC08E9AF0533
:010F4C002282
:100E69001210507FCC120F4D7F44120F4D12105AA1
:100E79001210507FCC120F4D7FBE120F4D120F3141
:100E8900AB07120F31EFC454F0FFEBC4540F4FFFFF
:010E99002236
:100FFB00E4FEC297EF1392A3EFC313FFD2970EBE7B
:02100B0008F0EB
:01100D0022C0
:100FAA00E4FEEFC313FFC29730A303430780D2972F
:040FBA000EBE08EE71
:010FBE002210
:10100E00EF75F00A84C454F0FEEF75F00A84EE25F5
:03101E00F0FF22BE
:0F103300EFC4540F75F00AA4FEEF540F2EFF22E6
:100F1300AC07AF0512100EAD07C293C297C2A3D29E
:0E0F230093AF04120FFBAF05120FFBC2932217
:10102100C293C297C2A3D293120FFB120FAA12103E
:02103100332268
:100FBF007D377F80120F137D3B7F82120F137D0EC3
:050FCF007F84020F13F6
:100D4200D2C2D2C4E4FF7401A807088002C333D818
:100D5200FCF4F5B020C408EF25E025E004FF2220D2
:100D6200C209EF25E025E02402FF2220B509EF2584
:100D7200E025E02403FF2220B409EF25E025E0244A
:090D820004FF220FBF04BF7F0033
:010D8B002245
:100EF400120D42EFD39400400EE51E940F4004D22D
:0E0F0400028009051E8005E4F51EC202A2024D
:010F120022BC
:0D104200300108120D42AE072001FDAF067F
:01104F00227E
:0F0FEB000D40C0F9A4B0999282F88090FFBFC664
:100C830074402FF8E6F51674402DF8E6F517744016
:100C93002BF8E6F51874402511F8E6F5197440258C
:100CA30012F8E6F51A74402513F8E6F51B7440258F
:100CB30014F8E6F51C74402515F8E6F51D90E000E0
:100CC30074FFF0AF3F7401A807088002C333D8FC58
:100CD30090C000F07416253FF8E690E000F0053F61
:0A0CE300E53FC394084003E4F53F29
:010CED0022E4
:100DC900AE07AC05EE75F00A84FFEE75F00A84AD46
:100DD900F0EC75F00A84F511EC75F00A8485F012CF
:100DE90075130BEB75F00A84F514EB75F00A84851D
:070DF900F0157B0B020C83D7
:100EC800AE05AD07EE75F00A84F511EE75F00A84EB
:100ED80085F01275130BEB75F00A84F514EB75F0B9
:0C0EE8000A8485F0157B0B7F0B020C8345
:100E0000AE07AC05EE75F00A84FFEE75F00A84AD0E
:100E1000F0EC75F00A84F511EC75F00A8485F01297
:100E200075130BEB75F00A84F514EB75F00A8485E5
:070E3000F0157B0B020C839F
:100B4D00AA07AE03AC05E50D1460181460361460E9
:100B5D005414607324046003020BF6AF02AD048ECF
:100B6D00118049AD048E11850B1275130BE50C75B3
:100B7D00F00A84F514E50C75F00A8485F0157B0BED
:100B8D007F0A8062AF028E11850B1275130BE50C77
:100B9D0075F00A84F514E50C75F00A8485F0157B63
:100BAD000B7D0A8041AF02AD0475110A850B1275DC
:100BBD00130BE50C75F00A84F514E50C75F00A8439
:100BCD0085F0157B0B801FAF02AD048E1175120AD7
:100BDD0075130BE50C75F00A84F514E50C75F00A28
:0A0BED008485F0157B0B120C8322A7
:100C0300020E9AE493A3F8E493A34003F68001F25F
:100C130008DFF48029E493A3F85407240CC8C333F2
:100C2300C4540F4420C8834004F456800146F6DFC1
:100C3300E4800B0102040810204080900FE8E47E5A
:100C4300019360BCA3FF543F30E509541FFEE493B6
:100C5300A360010ECF54C025E060A840B8E493A37D
:100C6300FAE493A3F8E493A3C8C582C8CAC583CAA8
:100C7300F0A3C8C582C8CAC583CADFE9DEE780BE60
:010FFA0000F6
:00000001FF
