:0A0E450025643A25642020200A00ED
:090E4F000729010203040506074E
:100C7600750927750A10120DF590A000E4F0FB7AAD
:100C8600007929750F07FF120DD3E50A150AAE097B
:100C9600700215094E70F37B007A007922750F07F2
:100CA600E4FF120D12E4F508D2997BFF7A0E79451E
:100CB600750E0085080F74222508F8E6751000F5F4
:0F0CC600111208620508E508C3940740DB80FEA1
:03002300020CD5F7
:100CD500C0E0C0F0C083C082C0D075D000C000C0E5
:100CE50001C002C003C004C005C006C007120E6BD8
:100CF5008F30D007D006D005D004D003D002D00164
:0D0D0500D000D0D0D082D083D0F0D0E0322A
:100DF500759850438E01538EFB75D7E875D6FF4322
:050E05008E10D2AC22AA
:080E63008F993099FDC299221C
:080E6B003098FDC298AF9922F6
:100E0A00120B5CFF600C120E63740129F9E43AFAC2
:030E1A0080EE2245
:070E2C00C2A1120E33D2A097
:060E330000007F0CDFFE51
:010E39002296
:0A0E5900D2A1120E2EC2A1020E3328
:080E7300120E2CD2A1020E3375
:100D6900AC07120E597FA0120D8E120D7BAF041223
:020D79000D8EDD
:100D7B007EC8D2A0120E3330A106AF061EEF70F75D
:020D8B00C2A004
:010D8D002243
:0B0E3A00120E2CC2A0120E33D2A12217
:0F0E1D00D2A0120E33D2A1120E33C2A0020E3396
:020D8E00AE07AE
:100D9000E4FDC2A0120E33EE30E704D2A18002C2FD
:100DA000A1120E33D2A0EE25E0FE0DBD08E4C2A0D4
:010DB0002220
:100DB100D2A1E4FDEE25E0FED2A0120E3330A10354
:100DC100430601120E33C2A0120E330DBD08E5AF6A
:010DD100061B
:010DD20022FE
:100DD300120D69E4FCECC3950F5014120B5CFF1267
:100DE3000D8E120D7B740129F9E43AFA0C80E602A8
:020DF3000E737D
:100D1200120D69120E597FA1120D8E120D7BE4FC89
:100D2200ECC3950F5014120DB1EF120B75120E3A5F
:100D3200740129F9E43AFA0C80E6120E1D020E73D0
:03000000020BEA06
:0C0BEA00787FE4F6D8FD758130020C31F4
:100B5C00BB010689828A83E0225002E722BBFE0297
:090B6C00E32289828A83E49322CA
:100B7500BB010689828A83F0225002F722BBFE015F
:020B8500F32259
:10080000E51A240EF8E6051A22780B300702780E56
:10081000E475F001120BB4020B5C2000EB7F2ED2CA
:10082000008018EF540F2490D43440D4FF30040BD0
:10083000EF24BFB41A0050032461FFE51B600215CA
:100840001B051EE51E7002051D30070D780BE475B3
:10085000F001120BB4EF020B75020D427403D207C4
:100860008003E4C207F51A8B0B8A0C890DE4F51B93
:10087000F51DF51EE51B60077F2012083B80F5750E
:100880001CFFC201C200C202C203C205C206C208E6
:10089000120809FF700D3007057F0012084CAF1ECB
:1008A000AE1D22B4255FC2D5C204120809FF24D0B0
:1008B000B40A00501A75F00A781B30D50508B6FF47
:1008C0000106C6A426F620D5047002D20380D924DE
:1008D000CFB41A00EF5004C2E5D204020A4CD20190
:1008E00080C6D20080C0D20280BCD2D580BAD205E8
:1008F00080B47F2012083B2002077401B51B004022
:10090000F1120800FF12083B020874D208D20680D8
:1009100095120800FB120800FA120800F94A4B7001
:1009200006791D7A0B7BFF20022EE51B602A7E00D4
:100930008E82758300120B8760060EEE651C70F0C8
:10094000C2D5EBC0E0EAC0E0E9C0E0EE120A93D005
:10095000E0F9D0E0FAD0E0FB120B5CFF60AAEBC03C
:10096000E0EAC0E0E9C0E012083BD0E02401F9D0A1
:10097000E03400FAD0E0FBE51C0460DCD51CD98033
:10098000877BFF7A0A798FD202809C791080027966
:1009900008C206C2088008D2D5790A8004790AC242
:1009A000D5E51C047002F51CE4FAFDFEFF120800F8
:1009B000FC7B08200113120800FD7B1030000A1296
:1009C0000800FE120800FF7B20EC3382D592D55040
:1009D00013C3E43000069FFFE49EFEE42001039D64
:1009E000FDE49CFCE4CBF8C201EC700CCFCECDCC86
:1009F000E824F8F870F38017C3EF33FFEE33FEED11
:100A000033FDEC33FCEB33FB994002FB0FD8E9EBF1
:100A1000300105F8D0E0C448B201C0E00AEC4D4E08
:100A20004F78207B0070C2EAB51C0040BCC0E012C9
:100A30000A95D0F0D0E0200104C4C0E0C4B201C0E7
:100A4000F0120824D0F0D5F0EB020874120BC409A0
:100A50001153098B5808E24C08DE42098F4F099761
:0F0A60004409974908F743099D550981460981C3
:100A6F00450981470B3D5008E62D08EA2E090D2B4D
:100A7F0008EE23090B200B262A08A64800000905BB
:100A8F003F3F3F00790AA2D5200314300509B91062
:100A9F00020404B9080104A2D52006025001042063
:100AAF0002689202B51B005034C0E07F203003195A
:100ABF007F30A20272067205500F120AECC202C2F8
:100ACF0006C205C2087F30800F300503E9C0E0126F
:100ADF00083B300503D0E0F9D0E0B51BCC3005174B
:100AEF007F30B9100C12083B7F583004077F788095
:100AFF0003B9080312083B3002057F2D02083B7F24
:100B0F00202008F87F2B2006F322920280CF286E38
:100B1F00756C6C2900D2011208003001F8C20178FF
:100B2F001B30D50108F60208A62D5043495812086C
:100B3F00002403B405004001E4900B389312082CF5
:0D0B4F00743A12082CD203751B0402098BA6
:100BF600020C76E493A3F8E493A34003F68001F293
:100C060008DFF48029E493A3F85407240CC8C333FF
:100C1600C4540F4420C8834004F456800146F6DFCE
:100C2600E4800B0102040810204080900E4FE47E01
:100C3600019360BCA3FF543F30E509541FFEE493C3
:100C4600A360010ECF54C025E060A840B8E493A38A
:100C5600FAE493A3F8E493A3C8C582C8CAC583CAB5
:100C6600F0A3C8C582C8CAC583CADFE9DEE780BE6D
:010E58000099
:100B8700BB010CE58229F582E5833AF583E0225023
:100B970006E92582F8E622BBFE06E92582F8E2226D
:0D0BA700E58229F582E5833AF583E4932287
:100BB400FAE6FB0808E6F925F0F618E6CA3AF62242
:100BC400D083D082F8E4937012740193700DA3A3C0
:100BD40093F8740193F5828883E4737402936860D4
:060BE400EFA3A3A380DFD4
:100D4200EFB40A07740D120D4D740A309811A89968
:100D5200B8130CC2983098FDA899C298B811F63011
:070D620099FDC299F59922E9
:00000001FF
