:100000000C942A000C9447000C9447000C94470071
:100010000C9438020C9447000C9447000C94470051
:100020000C9447000C9418020C9447000C94470061
:100030000C9447000C9447000C945E020C9447000B
:100040000C9447000C9447000C9447000C94470014
:100050000C94470011241FBECFE5D4E0DEBFCDBF16
:1000600010E0A0E6B0E0E8E1F9E002C005900D92F2
:10007000A637B107D9F720E0A6E7B0E001C01D928E
:10008000A13CB207E1F70E949E020C948A040C94F2
:10009000000083E487B98FEF86B980B78F7180BF86
:1000A000089524B185B1837090E0982F8827820F3E
:1000B000911D0895CF93DF9300D000D0CDB7DEB768
:1000C0009DEC899F212D1124269526952695E22FBA
:1000D000F0E0E05AFF4F30813983220F322F330F87
:1000E000330F230F821BE82FF0E0E05AFF4F80818F
:1000F0008A83699F812D1124869586958695E82FA0
:10010000F0E0E05AFF4F90819B83880F982F990F62
:10011000990F890F681BE62FF0E0E05AFF4F8081AE
:100120008C8315BA80917800FE01E80FF11D918152
:10013000AF9888E0DF98992314F4AE9A01C0AE9886
:10014000DF9A990F8150B1F7AF9A81E090E000906B
:10015000780002C0880F991F0A94E2F785BB80914E
:1001600078008F5F843018F48093780002C010927A
:1001700078000F900F900F900F90DF91CF9108951E
:1001800098E0929880FF02C0939A01C093982AE168
:100190002A95F1F700C0929A8695915091F70895AB
:1001A000CF93C62F949892982AE12A95F1F700C030
:1001B000949A9AE19A95F1F700C00E94C0002AE152
:1001C0002A95F1F700C092988AE18A95F1F700C06C
:1001D00092989AE19A95F1F700C09DECC99F912DF4
:1001E0001124969596959695292F220F822F880F88
:1001F000880F820FC81B8C2F20E1929F800D112445
:100200000E94C00092988AE18A95F1F700C0949804
:10021000CF910895949892988C9A8A9A60E08EE88B
:100220000E94D00060E080E80E94D00061E182E896
:100230000E94D00064E184E80E94D0006BE186E86F
:100240000E94D00063E088E80E94D00062E18CE860
:100250000E94D0006BEA80E90E94D00060E88EE83E
:100260000E94D000089587B3836087BB82B3836008
:1002700082BB1AB81BB880B5866880BD84E389B993
:1002800010BC8AB188618AB90895282F98E080E06F
:10029000222314F4C49A01C0C498220F880FC59A6F
:1002A000B3998F5FC598915099F70895CF93DF93D5
:1002B000D62FC6980E944501C82F8D2F0E94450158
:1002C000C69A8C2FDF91CF910895DF92EF92FF9223
:1002D0000F931F93CF93DF937B01142FC6980E9437
:1002E0004501D82E112371F0E7011150012F10E0C4
:1002F0000F5F1F4F0E0D1F1D89910E944501C017F2
:10030000D107D1F7C69A8D2DDF91CF911F910F9113
:10031000FF90EF90DF900895C7986FE080E20E9411
:100320005601C79A0895C798C69AC59845E060E7F0
:1003300070E080E30E94650145E06BE670E08AE2D0
:100340000E94650161E081E20E94560161E082E263
:100350000E9456016AE184E20E94560163E085E250
:100360000E94560167E086E20E94560160E281E346
:100370000E9456016EE080E20E945601C79A0895DD
:1003800085E083BF84E482BF89B7816089BF089517
:1003900084E085BD83E884BD89B7806489BF089502
:1003A0008D9A82E88FBD8AE18EBD88EE93E097BD7D
:1003B00086BD84E893E09BBD8ABD0895CF92DF920D
:1003C000EF92FF921F93CF93DF93182F9B0140E092
:1003D00050E060E472E48FE090E00E94490437BD91
:1003E00026BDC6B5D7B5612F70E080E090E00E94D1
:1003F0004E0320E030E048EC52E40E94AD026B0175
:100400007C01BE0180E090E00E944E039B01AC01A4
:10041000C701B6010E94DC030E941F037BBD6ABDB9
:10042000DF91CF911F91FF90EF90DF90CF900895D3
:100430001F920F920FB60F9211248F938091770025
:100440008E3120F48F5F809377000CC0109277007C
:10045000809176008A3020F48F5F8093760002C00E
:10046000109276008F910F900FBE0F901F901895ED
:100470001F920F920FB60F9211242F933F934F9319
:100480005F936F937F938F939F93AF93BF93EF93FC
:10049000FF9362E28CE00E945A00FF91EF91BF91BE
:1004A000AF919F918F917F916F915F914F913F910C
:1004B0002F910F900FBE0F901F9018951F920F92C3
:1004C0000FB60F9211242F933F934F935F936F9327
:1004D0007F938F939F93AF93BF93EF93FF930E946C
:1004E000510090939B0080939A00FF91EF91BF91F0
:1004F000AF919F918F917F916F915F914F913F91BC
:100500002F910F900FBE0F901F9018958FEF81BB0A
:1005100084BB90EF97BB8ABB0E9493010E948C0121
:100520000E94C0010E94D0010E94C8010E9449009F
:100530000E9433010E940A01789408950E94860265
:1005400060ED77E08AE00E94DE018091BF0080FFCD
:1005500002C09798FACF979AF8CF0E94C1020C94E4
:10056000A2030E949B0358F00E94940340F029F4D8
:100570005F3F29F00C948B0351110C94D6030C941B
:1005800091030E94B30368F39923B1F3552391F3C8
:10059000951B550BBB27AA2762177307840738F0F2
:1005A0009F5F5F4F220F331F441FAA1FA9F335D04F
:1005B0000E2E3AF0E0E832D091505040E695001C03
:1005C000CAF72BD0FE2F29D0660F771F881FBB1FBD
:1005D000261737074807AB07B0E809F0BB0B802D9B
:1005E000BF01FF2793585F4F3AF09E3F510578F0C7
:1005F0000C948B030C94D6035F3FE4F3983ED4F342
:10060000869577956795B795F7959F5FC9F7880F9A
:10061000911D9695879597F90895E1E0660F771FEC
:10062000881FBB1F621773078407BA0720F0621B7D
:10063000730B840BBA0BEE1F88F7E09508950E94A8
:10064000BB0388F09F5798F0B92F9927B751B0F0A6
:10065000E1F0660F771F881F991F1AF0BA95C9F746
:1006600014C0B13091F00E94D503B1E008950C940C
:10067000D503672F782F8827B85F39F0B93FCCF3BF
:10068000869577956795B395D9F73EF490958095C3
:10069000709561957F4F8F4F9F4F0895E89409C0E3
:1006A00097FB3EF490958095709561957F4F8F4FA5
:1006B0009F4F9923A9F0F92F96E9BB279395F695BB
:1006C000879577956795B795F111F8CFFAF4BB0F39
:1006D00011F460FF1BC06F5F7F4F8F4F9F4F16C09D
:1006E000882311F096E911C0772321F09EE8872F27
:1006F000762F05C0662371F096E8862F70E060E0E3
:100700002AF09A95660F771F881FDAF7880F96955B
:10071000879597F9089597F99F6780E870E060E002
:1007200008959FEF80EC089500240A94161617068A
:1007300018060906089500240A94121613061406D2
:1007400005060895092E0394000C11F4882352F035
:10075000BB0F40F4BF2B11F460FF04C06F5F7F4FED
:100760008F4F9F4F089557FD9058440F551F59F0D4
:100770005F3F71F04795880F97FB991F61F09F3F8E
:1007800079F087950895121613061406551FF2CFB7
:100790004695F1DF08C0161617061806991FF1CF07
:1007A00086957105610508940895E894BB2766272E
:1007B0007727CB0197F908950E94EF030C94A203C9
:1007C0000E94940338F00E949B0320F0952311F0BF
:1007D0000C948B030C94910311240C94D6030E9467
:1007E000B30370F3959FC1F3950F50E0551F629FBF
:1007F000F001729FBB27F00DB11D639FAA27F00D7A
:10080000B11DAA1F649F6627B00DA11D661F829FA0
:100810002227B00DA11D621F739FB00DA11D621F85
:10082000839FA00D611D221F749F3327A00D611DA2
:10083000231F849F600D211D822F762F6A2F112484
:100840009F5750409AF0F1F088234AF0EE0FFF1FB7
:10085000BB1F661F771F881F91505040A9F79E3F0E
:10086000510580F00C948B030C94D6035F3FE4F3A6
:10087000983ED4F3869577956795B795F795E79564
:100880009F5FC1F7FE2B880F911D9695879597F96D
:100890000895052E97FB1EF400940E94600457FDF6
:1008A00007D00E94680407FC03D04EF40C94600447
:1008B00050954095309521953F4F4F4F5F4F08958C
:1008C00090958095709561957F4F8F4F9F4F0895BC
:1008D000A1E21A2EAA1BBB1BFD010DC0AA1FBB1F44
:1008E000EE1FFF1FA217B307E407F50720F0A21BB6
:1008F000B30BE40BF50B661F771F881F991F1A9423
:1009000069F760957095809590959B01AC01BD014C
:08091000CF010895F894FFCF18
:100918007E306D79335B5F707F7B803443101001CC
:0609280034431010010031
:00000001FF
