:03000000020AB839
:0C0AB800787FE4F6D8FD758125020AFF66
:0F0C5A00120C49120B9C8E248F25120C9E80F4D5
:100C4900C2AF120C1F120C69120C84120C91D2AF94
:010C59002278
:100C1F0090800074FFF090A000E4F090C00074FF8B
:060C2F00F090E000F0224D
:03000B00020B44A1
:100B4400C0E0C0F0C083C082C0D075D000C000C077
:100B540001C002C003C004C005C006C007AE24AF74
:100B6400257C007D641209C5AB07AE24AF257C004B
:100B74007D641209C58D1EE4FDFF120A28D007D03A
:100B840006D005D004D003D002D001D000D0D0D0FC
:080B940082D083D0F0D0E032E2
:03006300020BE4A9
:100BE400C0E0C0F0C083C082C0D075D000C000C0D7
:100BF40001C002C003C004C005C006C007120C3502
:100C0400D007D006D005D004D003D002D001D00044
:0B0C1400D0D0D082D083D0F0D0E032EE
:080C9E007F757EB8DEFEDFFC6D
:010CA600222B
:0C0C77000A11C0F9A4B0999282F8809094
:100A2800EF75F00A842411F8E6F508EF75F00A84EA
:100A3800741125F0F8E6F509ED75F00A842411F82B
:100A4800E6F50AED75F00A84741125F0F8E6F50B61
:100A5800EB75F00A842411F8E6F50CEB75F00A84BE
:100A6800741125F0F8E6F50DE51E75F00A842411D9
:100A7800F8E6F50EE51E75F00A84741125F0F8E61F
:100A8800F50F90E00074FFF0AF107401A80708801C
:100A980002C333D8FC90C000F074082510F8E69023
:0F0AA800E000F00510E510C394084003E4F510DA
:010AB700221C
:0E0C6900758CF8758A305389F0D2A9D28C228E
:0D0C8400E4F58DF58B53890FC2ABC28E22B3
:0D0C910075D7F675D6FF438E1043AF0422D1
:100C3500300010B2900521E521C394084005E4F584
:030C450021C200C9
:010C48002289
:100B9C00E4FFFE20003DF58DF58BD200D28E309116
:100BAC0003308FFAC28E308F0AC28F7522277523BD
:100BBC000F8020AF8DEFFEAD8BEDFFE4AC0612097C
:100BCC000B7B967A43798B783C1208001209448E81
:070BDC00228F23AE22AF239C
:010BE30022EF
:10080000EC4D6011E8497017ED33EC3304600DE4F2
:10081000FCFFFEFD22E933E8330470F80209B01250
:10082000097B58046009E4CC248150062850090251
:1008300009BA2840030209B7C0E0EB4A7044B98006
:1008400006D0E0FB0209A6EF4E701CBD8008EBFF4E
:10085000EAFEE9FD80EBE98DF0A4FEE5F00208E98F
:10086000E9CDF9EAFEEBFFEF89F0A4FCE5F0CE89D3
:10087000F0A42EFFE435F0CD89F0A42DFEE435F090
:100880008067EF4E7005BD80D780C3EF8BF0A4ACBE
:10089000F0EE8BF0A42CFCE435F0F8EF8AF0A42CF9
:1008A000E5F038FCE433CB8DF0A42CFCE5F03BF80C
:1008B000EE8AF0A42CFCE5F038F8E433CF89F0A4FC
:1008C0002CFCE5F038CF3400CE89F0A42FFFE5F002
:1008D0003EFEE433C98DF0A42EFEE5F039CD8AF05A
:1008E000A42FFFE5F03EFEE43DFD33D0E0FB5007D2
:1008F0000BBB000F0209BAEC2CFCEF33FFEE33FE0A
:06090000ED33FD02099237
:1009060075F020800E75F010800575F0087D007E6C
:10091600007F003392D530D503120A1AEC3340100B
:10092600EF33FFEE33FEED33FDEC33FCD5F0ED2275
:0E093600E5F0247EA2D513CC92E7CDCEFF22B1
:10094400EDD2E7CD33EC3392D524814006E4FFFEAB
:10095400FDFC22FCE4CFCECDCC24E0501174FF800A
:10096400EDC3CC13CCCD13CDCE13CECF13CF0470A7
:07097400F030D5DE020A1A83
:10097B00E9D2E7C933E833F892D5EDD2E7CD33ECC2
:07098B0033FC5002B2D5223B
:10099200EC30E7100FBF000C0EBE00080DBD0004C6
:1009A2000BEB6014A2D5EB13FCED92E7FD2274FF72
:1009B200FCFDFEFF22E480F8A2D574FF13FC7D80CB
:0309C200E480EFDF
:100AC400020C5AE493A3F8E493A34003F68001F2E2
:100AD40008DFF48029E493A3F85407240CC8C33333
:100AE400C4540F4420C8834004F456800146F6DF02
:100AF400E4800B0102040810204080900C77E47E0F
:100B0400019360BCA3FF543F30E509541FFEE493F6
:100B1400A360010ECF54C025E060A840B8E493A3BD
:100B2400FAE493A3F8E493A3C8C582C8CAC583CAE8
:100B3400F0A3C8C582C8CAC583CADFE9DEE780BEA0
:010C83000070
:1009C500BC000BBE0029EF8DF084FFADF022E4CC16
:1009D500F875F008EF2FFFEE33FEEC33FCEE9DECDF
:1009E500984005FCEE9DFE0FD5F0E9E4CEFD22ED25
:1009F500F8F5F0EE8420D21CFEADF075F008EF2F6F
:100A0500FFED33FD4007985006D5F0F222C398FD5F
:050A15000FD5F0EA22FC
:0E0A1A00C3E49FFFE49EFEE49DFDE49CFC22ED
:00000001FF
