:0300000002089A59
:0C089A00787FE4F6D8FD7581280208E1A3
:0F0B5B000D09C0F9A4B0999282F88090FFBFC62F
:1009AB00EF75F00A842409F8E6F518EF75F00A8460
:1009BB00740925F0F8E6F51985141AED75F00A841B
:1009CB002409F8E6F51BED75F00A84740925F0F897
:1009DB00E6F51C85141DEB75F00A842409F8E6F581
:1009EB001EEB75F00A84740925F0F8E6F51F90E00C
:1009FB000074FFF0AF087401A807088002C333D856
:100A0B00FC90C000F074182508F8E690E000F005A3
:0B0A1B0008E508C394084003E4F50858
:010A260022AD
:0B0BE10090E000E4F090C000EFF02274
:100B3A0075B00FE5B0540F640F6010E528C3940F29
:100B4A00400675280FD20022052822E4F528C200A3
:010B5A002278
:100AED00E4FF30002520B0060F30001E80FB20B142
:100AFD00077F0230001480FB20B2077F0330000A0D
:0A0B0D0080FB20B3057F042000FDEB
:010B170022BB
:100B7200759850438E01538EFB75D7E875D6FF43A7
:050B82008E10D2AC2230
:080BEC008F993099FDC2992296
:080BF4003098FDC298AF992270
:0E0BC500758CF8758A305389F0D2A9D28C2233
:0E0BD300758DFC758B1853890FD2ABD28E2214
:070B6A000126FF022100003B
:100B1800120B87908000E526F0120AED8F27E52753
:100B2800B4030563268080EBE527B404E66326401A
:020B380080E15A
:03000B00020926C1
:10092600C0E0C0F0C083C082C0D075D000C000C097
:0D09360001C002C003C004C005C006C00718
:10094300C28CAB23AD25AF241209AB0522E522707F
:10095300020521D394F4E5219401402F75210075FC
:100963002200E523943C50040523801F752300E5F2
:1009730025C3943C500405258011752500E524C347
:0D0983009418500405248003752400D28CC4
:10099000D007D006D005D004D003D002D001D000BB
:0B09A000D0D0D082D083D0F0D0E03265
:03001B00020AB224
:100AB200C0E0C0F0C083C082C0D075D000C000C00A
:100AC20001C002C003C004C005C006C007120B3A31
:100AD200D007D006D005D004D003D002D001D00078
:0B0AE200D0D0D082D083D0F0D0E03222
:03002300020800D0
:10080000C0E0C0F0C083C082C0D075D000C000C0BE
:0D08100001C002C003C004C005C006C0073F
:10081D00120BF4EF54F0FEBEA00EEFF4540FFFE5F3
:10082D002654F04FF526804AEE64B07045E52475E8
:10083D00F00A84C454F0FFE52475F00A84EF25F026
:10084D00FF120BECE52575F00A84C454F0FFE52585
:10085D0075F00A84EF25F0FF120BECE52375F00A15
:10086D0084C454F0FFE52375F00A84EF25F0FF12E0
:02087D000BEC82
:10087F00D007D006D005D004D003D002D001D000CD
:0B088F00D0D0D082D083D0F0D0E03277
:100B8700120BB1120A71120A27120BD3120BC512DC
:050B97000B72D2AF2239
:100BB10090800074FFF090A000E4F090C000F090ED
:040BC100E000F0223E
:100A71007517FFE4F516AF167401A807088002C3C5
:100A810033D8FCF45217120B9C0516E516C39408D3
:100A910040E4E4F516AF167401A807088002C333D9
:100AA100D8FC4217120B9C0516E516C3940840E5C5
:010AB1002222
:100A2700E4F517F516AF167401A807088002C3335B
:100A3700D8FC4217AF17120BE1120BA20516E516E9
:100A4700C3940840E0E4F516AF167401A8070880C0
:100A570002C333D8FCF45217AF17120BE1120BA2E3
:090A67000516E516C3940840DFF2
:010A70002263
:060B9C00908000E517F057
:0E0BA20000007F057E347DC3DDFEDEFCDFFA41
:010BB0002222
:1008A600020B18E493A3F8E493A34003F68001F245
:1008B60008DFF48029E493A3F85407240CC8C33353
:1008C600C4540F4420C8834004F456800146F6DF22
:1008D600E4800B0102040810204080900B5BE47E4C
:1008E600019360BCA3FF543F30E509541FFEE49317
:1008F600A360010ECF54C025E060A840B8E493A3DE
:10090600FAE493A3F8E493A3C8C582C8CAC583CA08
:10091600F0A3C8C582C8CAC583CADFE9DEE780BEC0
:010B71000083
:00000001FF
