:040000000C945C0000
:14005400430301010000000000000000000000000000000050
:14006800000000000000000000000034B9CAD5CF00CEDED0AD
:14007C00C5BAC5002020202020200020202020CAB12020B77A
:14009000D62020C3EB0032302020C4EA2020D4C22020C8D595
:1400A40000CAB1BCE4A3BA00000034431010013443101001A0
:1400B800CFE5D4E0CDBFDEBFCE51D0400AEA08830024E4EC01
:1400CC00F0E010E0EF3FF10711F00192FBCF0083E4E5F0E0C0
:1400E000A0E6B0E010E000E00BBFE83BF10721F0C89531960C
:1400F4000D92F9CF0E947F00FFCF2297D6D10E94E5060E9413
:14010800A7060E94AA040E9407050E942A0581EB90E099836F
:14011C008883222700270E94300582EA90E09983888322E078
:1401300000270E94300583E990E09983888323E000270E94EE
:140144003005B0C10CED10E00E94AF068091DC00833409F024
:140158005AC08091FB00843309F055C04091DD00552741300D
:14016C00E0E05E0749F04230E0E05E0709F14430E0E05E07F7
:14018000A1F13CC08091FA00813079F497D18091D300805395
:140194008093C7008CE890E09983888321E000270E94300573
:1401A8003AC085E890E09983888321E000270E94300531C055
:1401BC00442712C08FED90E0E42FFF27E80FF91F20813327C3
:1401D0001091DE000CE10103042F1127000D111DA4D34395B6
:1401E4004C3160F31AC02090EB002220B1F000E610E00E9467
:1401F800CA0611C080E890E09983888321E000270E94300554
:14020C0008C080E890E09983888321E000270E943005C6D280
:140220003CD31091D60004E6010310012091DB00332700E17E
:1402340017E20E9444072801420C531C2090D3003324420CC2
:14024800531C5092C6004092C5001201C2018031E5E19E0702
:14025C0009F420C180E195E1841595050CF48CC02090C500E5
:140270003090C600C1018434EFEB9E0709F410C184E49FEB3B
:14028400821593050CF43EC04091C5005091C6004C31ECE9AA
:140298005E0709F401C18CE19CE984179507C4F04091C500BB
:1402AC005091C6004838EAE85E0709F4F3C04838EAE85E0779
:1402C0000CF4F2C08091C5009091C6008031E8E99E0709F497
:1402D400E5C0E8C04091C5005091C6004839EBEA5E0709F4D4
:1402E800DBC04839EBEA5E070CF4DAC08091C5009091C60055
:1402FC00803BEDEA9E0709F4CDC0D0C04091C5005091C60060
:14031000443FEFEE5E0709F4C3C084EF9FEE84179507C4F0A9
:140324004091C5005091C6004C3CECEC5E0709F4B5C04C3CC9
:14033800ECEC5E070CF4B4C08091C5009091C600803CEEECAD
:14034C009E0709F4A7C0AAC04091C5005091C6004C3DE3EF92
:140360005E0709F49DC04C3DE3EF5E070CF49CC08091C500D8
:140374009091C6008037EBE09E0709F48FC092C04091C50033
:140388005091C6004C3CEFE45E0709F485C08CEC9FE4841722
:14039C0095070CF43EC04091C5005091C6004839EEE25E07C0
:1403B00009F476C088E99EE284179507C4F04091C5005091B3
:1403C400C6004430E7E15E0709F468C04430E7E15E070CF4F8
:1403D80067C08091C5009091C600843AECE29E0709F45AC0E5
:1403EC005DC04091C5005091C6004833E8E35E0709F450C0EB
:140400004833E8E35E070CF44FC08091C5009091C6008035BC
:14041400E0E49E0709F442C045C04091C5005091C6004837AB
:14042800E3E65E07C9F188E793E684179507ACF04091C50087
:14043C005091C600443BE3E55E0761F1443BE3E55E0764F106
:140450008091C5009091C6008438E1E69E0701F123C040910D
:14046400C5005091C6004C30E5E75E07B9F08CE095E784173F
:1404780095074CF08091C5009091C600883EE4E79E0751F064
:14048C000DC08091C5009091C6008C3DE6E79E0709F004C0DA
:1404A00081E02BB228262BBA4FCE229608958FEF8ABB8BBB5C
:1404B40088EB87BBD09A08952090E8002092CC002090E900C9
:1404C8002092CB002090E6002092CE002090E7002092CD0077
:1404DC002090E4002092D1002090E5002092D0002090DE0050
:1404F0002092DA002090DF002092D9002090E0002092D80038
:140504002090E1002092D7002090E2002092D5002090E3001D
:140518002092D4001091CE000AE00103802D805E9091CD0073
:14052C009053890F8093CF001091CC000103C001805E91407D
:140540008053984FE091CB00FF27F0971C012E0E3F1E30928C
:14055400C9002092C8001091D1000103802D805E9091D0005E
:140568009053890F8093D2001091D8000103802D805E9091F6
:14057C00D7009053890F8093D6001091D5000103802D805E2B
:140590009091D4009053890F8093D3001091DA000103802DD5
:1405A400805E9091D9009053890F885F8093DB00883138F03A
:1405B80018E1082F0E942C070093DB0001D008958091D2006B
:1405CC008F5F8093D2002091C8003091C9000091CF0021D0F4
:1405E0000093CA00202E33244090D200552424143504B4F4D1
:1405F40081E08093D2008091CF008F5F8093CF008CE02090E1
:14060800CF00821548F48091C8009091C90001969093C900F6
:14061C008093C80008950E948E075901C02E6C2D772761300B
:14063000E0E07E0769F16230E0E07E0759F16330E0E07E071E
:1406440029F16430E0E07E0771F16530E0E07E07E9F0663004
:14065800E0E07E0731F16730E0E07E07A9F06830E0E07E07D5
:14066C0089F06930E0E07E07D1F06A30E0E07E0749F06B30AF
:14068000E0E07E0791F06C30E0E07E0709F00EC04FE10CC0FC
:1406940085010DD0002319F06DE170E002C06CE170E0462F51
:1406A80001C04EE1042F0C9497074A935A93A801CA018370AC
:1406BC0090708030890741F424E630E08A010E941007003027
:1406D000010741F420E931E08A010E9410070030010719F436
:1406E40041E050E002C044275527042F59914991089522272B
:1406F8000EE80E94CD052BEA00E90E94CD052091C8003091D8
:14070C00C900205D37400CE80E94CD052091CF0008E80E94A2
:14072000CD052091D20006E80E94CD0521E00AE80E94CD05A7
:140734002091DB0004E80E94CD052091D60002E80E94CD05E0
:140748002091D30000E80E94CD0520E80EE80C94CD05AA9211
:14075C000DE80E94A305202E33243092C9002092C80009E8AF
:140770000E94A3050093CF0007E80E94A305A02EA092D200BE
:1407840005E80E94A305A02EA092DB0003E80E94A305A02E4C
:14079800A092D60001E80E94A305A02EA092D300A990089569
:1407AC001AE00091DB000E942E07802F805D8093DA001AE089
:1407C0000091DB000E942C07802F805D8093D9001AE00091E1
:1407D400D3000E942E07802F805D8093D5001AE00091D30095
:1407E8000E942C07802F805D8093D4001AE00091D6000E94B2
:1407FC002E07802F805D8093D8001AE00091D6000E942C0707
:14081000802F805D8093D7001AE00091D2000E942E07802F7B
:14082400805D8093D1001AE00091D2000E942C07802F805D41
:140838008093D0001AE00091CF000E942E07802F805D8093F9
:14084C00CE001AE00091CF000E942C07802F805D8093CD002F
:1408600024E630E00091C8001091C9000E9410072AE030E0D4
:140874000E941207C801C0968093CC002AE030E00091C80044
:140888001091C9000E941007C801C0968093CB00089521E09E
:14089C0003E00E94B1040091DA000E94F3040091D9000E94FE
:1408B000F30423E003E00E94B1040091D8000E94F30400916D
:1408C400D7000E94F30425E003E00E94B1040091D5000E9469
:1408D800F3040091D4000E94F30421E002E00E94B10400914C
:1408EC00CC000E94F3040091CB000E94F30423E002E00E9417
:14090000B1040091CE000E94F3040091CD000E94F30425E03A
:1409140002E00E94B1040091D1000E94F3040091D0000C949A
:14092800F304F894E199FECF1FBB0EBB2DBBE29AE19A789463
:14093C000895AA92F894E199FECF1FBB0EBBE09AADB20A2D48
:14095000A99008958AB38F618ABB8BB38F618BBB08954A935D
:140964006A93422F602F662321F4042F005825D011C0613002
:1409780021F4042F00571FD00BC0623021F4042F085719D0F0
:14098C0005C0633019F4042F085613D06991499108954A9330
:1409A000442709C007FF02C0DE9A01C0DE98DF9ADF98000F99
:1409B40043954830A8F3499108950E947207402F88EFA82EF6
:1409C800642F607F842F8F708295807F482F0A2DE2DF062F3D
:1409DC00E0DF042FDEDF0C9479070E947207402F8AEFA82E5F
:1409F000642F607F842F8F708295807F482F0A2DCEDF062F29
:140A0400CCDF042FCADF0C947907DC98DB9805E010E00E94D9
:140A18004505DB9A05E010E00E94450504E3CBDF07E010E0E2
:140A2C000E94450500E3C5DF07E010E00E9445050CE0BFDFF6
:140A400007E010E00E94450501E0B9DF07E010E00C944505A5
:140A540001E0B3DF03E010E00C9445050E948007A22EC02E77
:140A68004E815F812C2D0A2D78DF05C0FA010081B6DF4F5F60
:140A7C005F4FFA0120802220B9F70C9487070E946807580193
:140A90004427552705C008EE13E007D04F5F5F4F4A155B05CB
:140AA400C0F30C946D070E946807580105E010E095010E9400
:140AB80044075801B694A794B694A7944427552702C04F5F25
:140ACC005F4F4A155B05D8F30C946D074A936A934427A1984C
:140AE000A998662712C0AA9A0AE010E00E945505AA980AE01C
:140AF40010E00E945505999B02C0406801C04F77AA9A4695BE
:140B08006395673060F3A19A042F699149910895AA924A93FF
:140B1C00A02E44270DC0AA98A0FE02C0A99A01C0A9980AE0EE
:140B300010E00E945505AA9AA6944395483088F34991A99069
:140B44000895AA92A02EA898AA980AE010E00E945505A89A5C
:140B58000AE010E00E9455050A2DDADF0AE010E00E945505ED
:140B6C00B5DFA02E0AE010E00E945505AA98A89810E10A2D93
:140B80000E942C07202E1A2D12951F700AE00103A02CA20C59
:140B94000A2DA9900895AA92CA92A22EC02EA898AA980AE07E
:140BA80010E00E945505A89A0AE010E00E9455050C2DAEDF6F
:140BBC000AE010E00E945505AA980AE010E00E945505AA98F5
:140BD0000AE010E00E9455051AE00A2D0E942E0780E1102F93
:140BE400082F0103202C1AE00A2D0E942C07200EA22C022D45
:140BF8008FDFAA980AE010E00E945505A898C990A9900895F4
:140C0C000E947207A901602FAE8022270EE8BFDF08C0FA01B2
:140C20002081062FBADF4F5F5F4F6E5FAA9480E08A15A8F350
:140C340020E80EE8B0DF0C947907A898AA98A09AA29A2227BE
:140C480000E8A7DF2BEA00E9A4DF20E80EE8A1CF4A935A9371
:140C5C004427552702C04F5F5F4F40175107D8F3442755271E
:140C700002C04F5F5F4F40175107D8F3599149910895AA923B
:140C84004A93AA2444270DC007FF02C0C59A01C0C598000F25
:140C9800AA0CC79AB69B01C0A394C7984395483088F30A2D87
:140CAC004991A9900895AA92A02EC4980A2DE3DF0027E1DF3E
:140CC000A02EC49AA9900895AA92CA92C22EA02EC4980A2D35
:140CD400D6DFA02E0C2DD3DFC49A0A2DC990A99008950E9438
:140CE8005F077901A02EC884C4980A2DC6DFA02EBB244427AE
:140CFC00552708C00027BFDFFA01EE0DFF1D00834F5F5F4FEA
:140D10002C2C3324421553059CF3C49A0A2D0C9454070E94B0
:140D24005F077901A02E4885C4980A2DA8DFA02ECC2405C0A3
:140D3800F70101917F01A1DFC394C416C8F3C49A0A2D0C94FC
:140D4C005407C3982FE000E2B9DFC39A00EB14E07DCF0E942A
:140D60006807580121974427F2DF07E0A2DF0093FE0006FFC5
:140D740007C0C39880E28883950101E6B2DF41E02091FE00FE
:140D880007E29EDF042F21960C946D07AA92BA92580121975A
:140D9C00C39885E088832AEB30E00AE2BCDF80E288839501C9
:140DB00000EAB7DF2EE000E287DFC39A08E512E04BDF21963C
:140DC400B990A99008952197C398C49AC79885E088832AEBA7
:140DD80030E000E3A2DF85E088832FEB30E00AE29CDF21E091
:140DEC0001E26CDF21E002E269DF2AE104E266DF23E005E278
:140E000063DF27E006E260DF20E201E35DDF2EE000E25ADF23
:140E1400C39A00E717E11EDF21960895689401C0E894EA9288
:140E2800FA928A93EE24FF2480E1000F111FEE1CFF1CE2161B
:140E3C00F30618F0E21AF30A03958A95A1F716F40E2D1F2DC8
:140E50008991F990E9900895689401C0E8942A93FA92EA92D7
:140E6400FF24EE2420E1000FFF1CEE1CE11610F0E11A039586
:140E78002A95B9F70EF40E2DE990F990299108950A921A9219
:140E8C008A939A93029FC001129F900D039F900D8C01999162
:140EA0008991199009900895A990B990C990D990E990F990FF
:140EB4004991599108957A936A935A934A93FA92EA92DA9281
:140EC800CA92BA92AA9208955A934A93BA92AA920895A9906D
:140EDC00B9904991599108957A936A935A934A93BA92AA92FC
:140EF0000895A990B990499159916991799108955A934A93A0
:140F0400DA92CA92BA92AA920895A990B990C990D9904991CE
:140F1800599108957A936A935A934A93DA92CA92BA92AA921A
:140F2C000895A990B990C990D990499159916991799108956B
:00000001FF
